:020000040800F2
:1000000000200020050100085501000855010008E6
:1000100000000000000000000000000000000000E0
:100020000000000000000000000000005501000872
:100030000000000000000000550100085501000804
:100040005501000800000000550100085501000896
:100050005501000855010008550100085501000828
:100060000000000055010008550100085501000876
:100070005501000855010008550100080000000066
:1000800055010008000000000000000055010008B4
:100090000000000055010008550100085501000846
:1000A00055010008550100085501000855010008D8
:0800B0005501000800000000EA
:1000B80010B5064C2378002B07D1054B002B02D036
:1000C800044800E000BF0123237010BD3800002061
:1000D80000000000C40A0008044B10B5002B03D030
:1000E8000349044800E000BF10BDC04600000000FE
:1000F8003C000020C40A0008704700000D488546EF
:10010800FFF7FAFF0C480D490D4A002302E0D458C6
:10011800C4500433C4188C42F9D30A4A0A4C002349
:1001280001E013600432A242FBD300F0A3FC00F00C
:1001380010F8FEE700200020000000203800002012
:10014800EC0A000838000020B4000020FEE7C04692
:10015800704710B500F08AFC002010BD10B5074BA1
:10016800074CA34205D207495A18C818944201DC23
:10017800186810BD03005218F7E7C04608000020B1
:100188000C0000208000002001230349034A8B4013
:1001980010689843106070477C00002000A00B4056
:1001A8000120034A034B90401A68104318607047B7
:1001B8007C00002000A00B40024B03481A68104343
:1001C8001860704704A00B401C0000200121F0B506
:1001D8000D00384B384C9D402268384B3848134046
:1001E8002B4323600368374A374F1A40374B134372
:1001F800036001235B421800354AD040165930404D
:100208002843344D344E28603068344D0540022070
:10021800FF30284330603248324D8340324800591D
:10022800324C034032480360324B20689D40324BC9
:100238000343AB432360314B31489C4606681E4359
:10024800AE4306603B682F4E1E403E6067462E4E0A
:1002580033681F433B00AB4333602C4B2C4E994013
:100268002C4B1D680D4335401D602B4B2B4D1E68D4
:100278002E401E602A4B1E6835401D60294D2A4BB2
:100288002E6833400B432B601F231159274C994389
:100298002160125826499A430A603F222549086876
:1002A8009043254A086010689843244B184310600F
:1002B800F0BDC0468400002000000B40FF0F00F096
:1002C80004000B40AE0000FA00030B40510000058B
:1002D8002C00002008000B400C000B400E0EFF0005
:1002E80074000020680000208000002000010B40FE
:1002F80010000B40340000201000002028000020CF
:1003080000020B4087C3FFFF00040B40640000207D
:100318003F70FFFF04010B4004020B40BF35FFFF95
:1003280004030B4004040B40BF75FFFF08010B409A
:1003380008020B4008030B4008040B4094000020FF
:10034800044B10B5984204D1002102000B00FFF7BE
:10035800FEFE10BD0010064070B50D000400FFF74A
:10036800EFFF0123AB401843206070BD0D490E4BD1
:100378000800984003000D4A10B5106803430C4864
:10038800834313600B4A0C4B1068034313600B4AFA
:100398000B4B106803430B48834313600A48FFF76D
:1003A800DBFF10BD68000020340000200400064078
:1003B8002800002004080640408A00000410064077
:1003C80090000020940000200008064010B5024963
:1003D8000248FFF7C1FFFEE754000020000806406E
:1003E80002000E4B70B5DA400D4C0E4B0E4DA3407B
:1003F8000E4CA9401B190400AC409200D3180C4ABB
:100408000C4DD440FF2229415242A240A1401E680F
:10041800013A32401143196070BDC04614000020F3
:100428002C000020180000208C00002000E100E0D3
:100438007C000020740000200B4B0C4A0C490D482E
:1004480010B5081A1A60FFF7CBFF00220A4B0B48B9
:100458001A6000220A4B0B4918601300FFF777FE59
:1004680009480A4B186010BD14E000E0FF5207006D
:10047800180000201C00002018E000E0A800002060
:1004880010E000E000E000E09C00002024030020D1
:10049800F7B54D4B0600C31801930123019A0D00CF
:1004A8001C00002A67D1494A9440494A9340494A66
:1004B8009858494B20439C40A050E7B200222100A5
:1004C8001300FFF744FE33000224424ABF0193435E
:1004D8003360424B32009C46414B42489C40424B61
:1004E800595DF7239A43130062460B433F49495D20
:1004F80091403F4A0B43515D624649010B43515DB0
:100508003C4A91400B431F4301231900344A914050
:100518008F433949495D9140384A0F43515DA7439C
:1005280081402A4A0F433760A95C354A9940525D99
:100538002F4F92000A433349695C1143254AAA5C4C
:10054800BA400A432B49495D6546A9400A4382518E
:100558000FD0019A002A23D12B49013ACA40024000
:1005680093402A4A1360002221001300FFF7EFFD91
:1005780002001000FEBD234A9440019AE7B2101B06
:1005880094429BD1124A9340124A9858204B2043D8
:100598009C40A050002221001300FFF7D8FD8CE7F3
:1005A800019A6411101BA242DDD101221649524260
:1005B800CA401848210002409340144A13600022A0
:1005C8001300FFF7C4FDCEE70080F4BF340000201D
:1005D8008C0000202C000020580000201C00002067
:1005E8006800002080000020000000201400002087
:1005F80018000020A800002024000020A4000020EB
:10060800B0000020540000207C00002000E100E041
:10061800AC0000209800002037B5074C074D230098
:10062800AB43236001232543200001A90193FFF771
:100638002FFF200025603EBD00800B402C000020CD
:10064800002010B5030002000100FFF7E5FFFFF7E7
:10065800BDFE00000A4A0B4B10B5D05803230122F7
:100668009843094B10431860084B09491C008C40FB
:100678002360084B1B1919689143196010BDC046C7
:1006880080000020000800401008004014000020EE
:10069800880000201C0000200C4A0D4B0D49934097
:1006A8000122186810B58A400400944322000A4CBD
:1006B800234118400841094B9840C0235B00134070
:1006C800DB001843064B1A40104310BD8C00002075
:1006D8000000002054000020AC000020A8000020EA
:1006E8007FFEFFFF0123F7B5040018002022964D76
:1006F8009649A8408B408A40954941580B439449F4
:100708005350FFF741FDFFF7C7FF924B924A9349B9
:100718009A400023A94090439B4203DA904D013B45
:100728002B4301338B4D9201AB40034301200B60F7
:100738008C4B4042984002238B4D0090AB40019374
:100748008A4B8B491B688B4F03409C4660468A4BFB
:100758008A4E1B5B03439343894A8248125D824059
:10076800134301221000884086498343095D08002D
:100778007F49884003438448B84083439C46744B70
:1007880061461B5D8148BB401700B7400B430221FF
:10079800BB437F4FB1403F5DB7403B438B437A49F2
:1007A8007C4E095DB1400B43774981408B437A49C0
:1007B8000E5D11008640A94033438B4365490E5DA9
:1007C8000199AE4033438B436649744D095DA94096
:1007D8001943664B1960724B195B724B196061497A
:1007E800714B8A401D6871490E5D29009143012EA5
:1007F80003D101996E480141294319606D4B9C460C
:1008080061466D4B0E5D1D6829009143012E01D193
:100818002A43110001221960684B524254481A6059
:10082800075D1000664E524BF040060048483E40B7
:100838004E4F1B5BC059009F624938400643022057
:100848001840304316004E4F4D001F403843424F6A
:10085800BE403F4F3E401E4030431600484FBE400A
:10086800404F3E401F271E403043574E1E40BE4358
:100878003043564E20371E40BE4330431600424F89
:10088800BE400E401E4030431600314FBE40170098
:100898002E40414D1E40AF40064388003840184066
:1008A800064310002B4FCD00B84017002840484D94
:1008B8001840AF40150030430E013E40384F1E40EF
:1008C800BD400643480105401D402E431500384FE2
:1008D8008801BD4005401D402E431500334FC80117
:1008E800BD4005401D402E436546AA40080202400F
:1008F80013401E434B029E43364B1A4A1B5D890226
:1009080093401E43344B354A1B5D012493408E436C
:100918001E43334B1E601A4B9C401800002E0DD10D
:100928000025304E2B00320021003460FFF70FFC09
:100938002B0032002100FFF70AFCFEBD00252A4AE1
:100948002B001460F6E7C0468C00002078000020D9
:100958002C00002034000020180000200000002097
:1009680000FFFFFF800000208400002000A00B4053
:10097800A0000020AC000020140000206C00002023
:100988001C000020A4000020A80000207400002003
:100998002400002070000020B00000208800002003
:1009A80004000020B0A00B40F0A00B406400002021
:1009B8005C00002068000020F4A00B400CA00B4055
:1009C800900000203000002094000020200000202B
:1009D80054000020600000205800002098000020EB
:1009E80008A00B4080E100E000E100E007B56B469D
:1009F800D81D01230370FFF775FEFFF7D1FBFFF742
:100A0800DBFB0EBD10B5FFF7E1FBFFF7AFFCFFF70F
:100A1800EDFFFFF715FE000010B5FFF71BFE044BB6
:100A2800044A01201A60044B044A1A6010BDC046EB
:100A38001C030020006CDC02200300209C00002026
:100A480010B5FFF78BFBFFF7E7FF0123044A0549C1
:100A58009340054AD150FFF7EFFCFFF7D3FFC0469C
:100A68008C0000208704001A2C000020C12010B53B
:100A7800FFF7E6FF70B500260C4D0D4C641BA41063
:100A8800A64209D1002600F019F80A4D0A4C641B49
:100A9800A410A64205D170BDB300EB5898470136A3
:100AA800EEE7B300EB5898470136F2E7E40A00088E
:100AB800E40A0008E40A0008E80A0008F8B5C04695
:100AC800F8BC08BC9E467047F8B5C046F8BC08BCE0
:040AD8009E4670477F
:080ADC0003010020D500000019
:040AE400E100000825
:040AE800B900000849
:100AEC00130020D5DB000000E4E1000000F056F814
:100AFC0003460B430020D500DF0A0008D500000098
:100B0C00E30000000000D900FF000000D900000045
:080B1C00DC0A00080000DB0008
:0400000508000105E9
:00000001FF
